:100000000C942A000C9447000C9447000C94470071
:100010000C9447000C9447000C9447000C94470044
:100020000C9447000C9447000C9447000C94470034
:100030000C9447000C9447000C9447000C94470024
:100040000C9447000C9447000C9447000C94470014
:100050000C94470011241FBECFE5D8E0DEBFCDBF12
:1000600010E0A0E6B0E0E8E6F0E102C005900D92F5
:10007000A238B107D9F710E0A2E8B0E001C01D92A4
:10008000A338B107E1F70E94D6060C9432080C940D
:100090000000282F207F929893989698979832B3D3
:1000A000922F96959695932B92BB32B3922F929561
:1000B00096959770990F990F990F932B92BB32B326
:1000C000922F907C932B92BB92B32078292B22BB4A
:1000D000919A91988295807F929893989698979804
:1000E00022B3982F96959695922B92BB22B3982F78
:1000F000929596959770990F990F990F922B92BBA5
:1001000022B3982F907C922B92BB92B38078892B4C
:1001100082BB919A919880ED97E00197F1F79098C2
:1001200091989298939896989798089590980E948D
:1001300049000895909A0E9449000895889A899AE2
:100140008A9A8B9A8E9A8F9AB89AB99A909891981F
:100150009298939896989798C098C198089584E03B
:1001600080937F0080917E0090918200890F845F50
:100170000E949600089510927F0080917E009091D9
:100180008200890F885F0E9496000895813019F4DB
:100190008093820002C01092820080917F00909133
:1001A0007E00890F885F90918200890F0E949600DF
:1001B0000895813021F482E080937E0002C0109285
:1001C0007E0080917F0090917E00890F885F9091E2
:1001D0008200890F0E9496000895282FB99A809175
:1001E00081008130A1F48FB580688FBD8FB58160AB
:1001F0008FBD8EB58B7F8EBD8EB582608EBD8EB568
:100200008E7F8EBD822F90E09BBD8ABD04C01FBC37
:100210001EBC1BBC1ABC209380000895B99A813083
:1002200021F4C19A8093810003C0C198109281008B
:10023000809180000E94ED00089581E00E94960068
:1002400080EA9FE00197F1F708950E949E0084EFF5
:1002500091E028EC30E0F9013197F1F70197D9F7F7
:1002600081E00E940E01929A939A919A919880E16E
:1002700097E2FC013197F1F7919A9198E0EDF7E060
:100280003197F1F7919A9198FC013197F1F7929893
:10029000919A91980197F1F788E20E9496000E9446
:1002A000BB0086E00E9496000E94AF000E941D01E4
:1002B000089582E00E94960080EA9FE00197F1F79E
:1002C0000895823011F480EC01C080E86F70862BB5
:1002D0000E94960008951F93182F862F642F0E9466
:1002E0006101812F0E949A001F9108951F93CF935F
:1002F000DF93EC01862F60E00E94610110E004C0F2
:100300000E949A0021961F5F8881882311F0103186
:10031000B9F7DF91CF911F9108951F93CF93DF938A
:10032000EC010E941D010E94590110E012C00E94C0
:100330009A001F5F103129F482E060E00E946101A1
:1003400007C0103229F481E060E00E94610110E0F2
:1003500021968881882359F7DF91CF911F910895C5
:1003600020E030E040ED57E005C0FA013197F1F7A9
:100370002F5F3F4F28173907C0F308958F92AF9230
:10038000BF92CF92DF92EF92FF920F931F93DF9372
:10039000CF93CDB7DEB7F62ED42EB22E883008F02C
:1003A00046C0182F110F110F110F812F805C0E9472
:1003B00096008F2D8F710E949A00812F8F5B0E9473
:1003C00096008D2D8F710E949A00812F8E5B0E9466
:1003D00096008B2D8F710E949A00812F8D5B0E9459
:1003E0009600802F8F710E949A00812F8C5B0E9453
:1003F00096008E2D8F710E949A00812F8B5B0E9438
:1004000096008C2D8F710E949A00812F8A5B0E942A
:1004100096008A2D8F710E949A00812F895B0E941D
:100420009600882D8F710E949A000E945901CF91E9
:10043000DF911F910F91FF90EF90DF90CF90BF90D1
:10044000AF908F9008958F92AF92CF92EF92FF92DC
:100450000F931F93182FF62E86E064E04EE025E1FF
:1004600004E074E0E72E54E0C52E34E0A32E882487
:100470000E94BE01812F6F2D0E94610186E00E94C3
:100480009A0080E090E020ED37E0F9013197F1F734
:1004900001968C3D9105C9F786E06EE045E124E0C8
:1004A00004E094E0E92EB4E0CB2EAA2488240E9434
:1004B000BE01812F6F2D0E94610186E00E949A008B
:1004C00080E090E020ED37E0F9013197F1F70196F7
:1004D0008C3D9105C9F786E065E144E024E004E045
:1004E000A4E0EA2ECC24AA2488240E94BE01812FF5
:1004F0006F2D0E94610186E00E949A0080E090E0EA
:1005000020ED37E0F9013197F1F701968C3D910527
:10051000C9F786E064E044E024E004E0EE24CC2463
:10052000AA2488240E94BE01812F6F2D0E946101A0
:1005300086E00E949A0080E090E020ED37E0F9012B
:100540003197F1F701968C3D9105C9F786E064E09B
:1005500044E024E000E0EE24CC24AA2488240E9475
:10056000BE01812F6F2D0E94610186E00E949A00DA
:1005700080E090E020ED37E0F9013197F1F7019646
:100580008C3D9105C9F786E064E044E020E000E09E
:10059000EE24CC24AA2488240E94BE01812F6F2D32
:1005A0000E94610186E00E949A0080E090E020EDC8
:1005B00037E0F9013197F1F701968C3D9105C9F7C4
:1005C00086E064E040E020E000E0EE24CC24AA24B1
:1005D00088240E94BE01812F6F2D0E94610186E058
:1005E0000E949A0080E090E020ED37E0F901319719
:1005F000F1F701968C3D9105C9F786E060E040E097
:1006000020E000E0EE24CC24AA2488240E94BE012D
:10061000812F6F2D0E94610186E00E949A0080E088
:1006200090E020ED37E0F9013197F1F701968C3D2C
:100630009105C9F786E060E040E020E000E0EE24AC
:10064000CC24AA24F4E08F2E0E94BE01812F6F2DAE
:100650000E94610186E00E949A0080E090E020ED17
:1006600037E0F9013197F1F701968C3D9105C9F713
:1006700086E060E040E020E000E0EE24CC24E4E00E
:10068000AE2E7EE0872E0E94BE01812F6F2D0E942C
:10069000610186E00E949A0080E090E020ED37E062
:1006A000F9013197F1F701968C3D9105C9F786E084
:1006B00060E040E020E000E0EE2454E0C52E3EE0A3
:1006C000A32E95E1892E0E94BE01812F6F2D0E94DD
:1006D000610186E00E949A0080E090E020ED37E022
:1006E000F9013197F1F701968C3D9105C9F786E044
:1006F00060E040E020E000E0B4E0EB2EAEE0CA2E87
:10070000F5E1AF2EE4E08E2E0E94BE01812F6F2D09
:100710000E94610186E00E949A0080E090E020ED56
:1007200037E0F9013197F1F701968C3D9105C9F752
:1007300086E060E040E020E004E07EE0E72E55E166
:10074000C52E34E0A32E94E0892E0E94BE01812F95
:100750006F2D0E94610186E00E949A0080E090E087
:1007600020ED37E0F9013197F1F701968C3D9105C5
:10077000C9F786E060E040E024E00EE0B5E1EB2E52
:10078000A4E0CA2EF4E0AF2EE4E08E2E0E94BE015B
:10079000812F6F2D0E94610186E00E949A0080E007
:1007A00090E020ED37E0F9013197F1F701968C3DAB
:1007B0009105C9F786E060E044E02EE005E174E0D1
:1007C000E72E54E0C52E34E0A32E94E0892E0E943B
:1007D000BE01812F6F2D0E94610186E00E949A0068
:1007E00080E090E020ED37E0F9013197F1F70196D4
:1007F0008C3D9105C9F71F910F91FF90EF90CF901D
:10080000AF908F9008958F92AF92CF92EF92FF9218
:100810000F931F93182FF62E86E060E040E024E04F
:100820000AE0F4E0EF2EEEE0CE2E74E0A72E5AE0C0
:10083000852E0E94BE01812F6F2D0E94610186E0EE
:100840000E949A0080E090E020ED37E0F9013197B6
:10085000F1F7019680359105C9F786E060E044E044
:100860002AE004E03EE0E32E94E0C92EBAE0AB2E8D
:1008700088240E94BE01812F6F2D0E94610186E0B5
:100880000E949A0080E090E020ED37E0F901319776
:10089000F1F7019680359105C9F786E064E04AE0FA
:1008A00024E00EE0A4E0EA2EFAE0CF2EAA24882469
:1008B0000E94BE01812F6F2D0E94610186E00E947F
:1008C0009A0080E090E020ED37E0F9013197F1F7F0
:1008D000019680359105C9F786E064E04AE024E09E
:1008E0000EE0E4E0EE2E7AE0C72EAA2488240E94CF
:1008F000BE01812F6F2D0E94610186E00E949A0047
:1009000080E090E020ED37E0F9013197F1F70196B2
:1009100080359105C9F786E060E044E02AE004E014
:100920005EE0E52E34E0C32E9AE0A92E88240E94D2
:10093000BE01812F6F2D0E94610186E00E949A0006
:1009400080E090E020ED37E0F9013197F1F7019672
:1009500080359105C9F786E060E040E024E00AE0D8
:10096000B4E0EB2EAEE0CA2EF4E0AF2EEAE08E2E1D
:100970000E94BE01812F6F2D0E94610186E00E94BE
:100980009A0080E090E020ED37E0F9013197F1F72F
:10099000019680359105C9F71F910F91FF90EF9057
:1009A000CF90AF908F9008958F92AF92CF92EF92A9
:1009B000FF920F931F93182FF62E86E064E04AE013
:1009C00024E00FE1E4E0EE2E74E0C72E5AE0A52EFD
:1009D00031E1832E0E94BE01812F6F2D0E946101A3
:1009E00086E00E949A0080E090E020ED37E0F90177
:1009F0003197F1F701968A3F9105C9F786E064E0E7
:100A00004AE025E10EE094E0E92EB4E0CB2EABE124
:100A1000AA2E88240E94BE01812F6F2D0E946101A1
:100A200086E00E949A0080E090E020ED37E0F90136
:100A30003197F1F701968A3F9105C9F71F910F9100
:100A4000FF90EF90CF90AF908F9008958F92AF92DC
:100A5000CF92EF92FF920F931F93182FF62E86E0FE
:100A600064E04AE024E00FE194E0E92EB4E0CB2E0C
:100A7000AAE0AA2EF1E18F2E0E94BE01812F6F2DD8
:100A80000E94610186E00E949A001F910F91FF90E1
:100A9000EF90CF90AF908F9008954F925F926F92AA
:100AA0007F928F92AF92CF92EF920F931F932C0170
:100AB0003B01142F87E06FE141E121E101E1E1E138
:100AC000EE2E71E1C72E51E1A52E3FE1832E0E944B
:100AD000BE01812F60E00E94610124E0769467945A
:100AE0002A95E1F7C201B3010E94CB078B01EE24E6
:100AF00004C08FEF0E949A00E3948E2D90E080173F
:100B00009107B8F3102F04C087E00E949A001F5F7E
:100B10001031D0F31F910F91EF90CF90AF908F9045
:100B20007F906F905F904F90089595B38295880F56
:100B3000880F807C9F7B982B95BB0895813011F4A2
:100B4000AE9801C0AE9A613011F4AF980895AF9A93
:100B50000895813011F4AC9801C0AC9A613011F461
:100B6000AD980895AD9A0895C19A0895C1980895D1
:100B700020E030E040ED57E005C0FA013197F1F791
:100B80002F5F3F4F28173907C0F3089580E060E2D8
:100B90000E94A007089587E060E20E94A0070895E0
:100BA0008F92AF92CF92EF920F93CF93DF938AB34E
:100BB0008ABBB99A84B3806F84BB0E94250180E010
:100BC0000E94D90080E00E94C6000E9426070E9471
:100BD0008907C19A81E061E00E949E0581E061E0A1
:100BE0000E94A90580E090E020ED37E0F9013197FF
:100BF000F1F7019641E0843F9407C1F780E060E09F
:100C00000E949E0580E060E00E94A90580E690E0D9
:100C100061E00E9476018EE690E062E00E9476013B
:100C200085E060E040E128E004E0F2E0EF2ECC2433
:100C3000C394AA2488240E94BE0100E0C0EDD7E03E
:100C40008CE761E040E00E946B018CE761E04FE0DF
:100C50000E946B0180E090E0FE013197F1F7019670
:100C600021E08E359207C1F78FE261E040E00E94FB
:100C70006B018FE261E04FE00E946B0180E090E049
:100C8000FE013197F1F7019641E08E359407C1F7E7
:100C90008DE261E040E00E946B018DE261E04FE097
:100CA0000E946B0180E090E0FE013197F1F7019620
:100CB00021E08E359207C1F781E060E00E9461017A
:100CC00085E00E949A0081E06FE00E94610185E06A
:100CD0000E949A0080E090E0FE013197F1F70196C2
:100CE00041E08E359407C1F78CE761E040E00E9457
:100CF0006B018CE761E04FE00E946B0180E090E0C7
:100D0000FE013197F1F7019621E08E359207C1F788
:100D10008FE261E040E00E946B018FE261E04FE012
:100D20000E946B0180E090E0FE013197F1F701969F
:100D300041E08E359407C1F78DE261E040E00E940A
:100D40006B018DE261E04FE00E946B0180E090E07A
:100D5000FE013197F1F7019621E08E359207C1F738
:100D600081E060E00E94610185E00E949A0081E0DC
:100D70006FE00E94610185E00E949A0080E090E0AF
:100D8000FE013197F1F7019641E08E359407C1F7E6
:100D90000F5F053009F054CF0E941D01DF91CF9104
:100DA0000F91EF90CF90AF908F900895CF92DF92F8
:100DB000EF92FF920F931F93DF93CF9300D000D059
:100DC000CDB7DEB70E94D0056E010894C11CD11CBE
:100DD000A0EDEA2EA7E0FA2E80E060E20E94A007D4
:100DE0008C01B6014AE050E00E9401080050124018
:100DF000B8F481E061E00E94A90581E060E00E9412
:100E00003D078BE46BE40E944C0780E090E0F70123
:100E10003197F1F7019623E084339207C1F70CC0B4
:100E200080E060E00E94A90581E061E00E943D074A
:100E300081E461E40E944C0780E090E0F701319783
:100E4000F1F701968A30910539F2F8CF81B38063CA
:100E500081BB84B38F6084BB8FB5816A8FBD8EB533
:100E60008B7F8EBD8EB582608EBD8EB58E7F8EBD22
:100E70001BBC1ABC19BC18BC0895613019F4A898A1
:100E8000A99A02C0A998A89A813019F4AA98AB9A95
:100E90000895AB98AA9A089590E09BBD8ABD70E032
:100EA00079BD68BD089585B3836085BB85B38C60CB
:100EB00085BB089585B3807F85BB08950895EF9223
:100EC000FF920F931F93082FE62E81E061E00E94AE
:100ED0003D0710E01BBD0ABDFF24F9BCE8BC1F9113
:100EE0000F91FF90EF900895EF92FF920F931F9351
:100EF000082FE62E80E060E00E943D0710E01BBD59
:100F00000ABDFF24F9BCE8BC1F910F91FF90EF9040
:100F1000089580EC87B983E086B9379A369A369976
:100F2000FECF84B195B1089597B18F71907E892BD2
:100F300087B9369A3699FECF24B135B1C9010895E3
:100F4000BF92CF92DF92EF92FF920F931F93B82E32
:100F5000C62EEE24FF248701DD240AC08B2D0E94BB
:100F60009407A0E0B0E0E80EF91E0A1F1B1FD394FF
:100F7000DC14A0F32C2D30E040E050E0C801B701B4
:100F80000E94DF07C9011F910F91FF90EF90DF9042
:100F9000CF90BF900895AA1BBB1B51E107C0AA1FA9
:100FA000BB1FA617B70710F0A61BB70B881F991F0A
:100FB0005A95A9F780959095BC01CD010895A1E2BD
:100FC0001A2EAA1BBB1BFD010DC0AA1FBB1FEE1FC3
:100FD000FF1FA217B307E407F50720F0A21BB30B0E
:100FE000E40BF50B661F771F881F991F1A9469F78A
:100FF00060957095809590959B01AC01BD01CF01E6
:101000000895FB019F01E8944230C4F04532B4F4E6
:101010004A3029F497FB1EF4909581959F4F642FD9
:1010200077270E94CB07805D8A330CF0895D81931E
:10103000CB010097A1F716F45DE251931082C9012C
:101040000C942208DC01FC01672F71917723E1F7F2
:10105000329704C07C916D9370836291AE17BF0785
:08106000C8F30895F894FFCFD6
:1010680020202D41746D656761426F742D0062798F
:1010780020426A6F65726E20426F737365000204C6
:02108800FF0166
:00000001FF
